:020000040000FA
:100000000C949F000C94C7000C94C7000C94C7007C
:100010000C94C7000C94C7000C94C7000C94C70044
:100020000C94C7000C94C7000C94C7000C94C70034
:100030000C94C7000C94C7000C94C7000C94C70024
:100040000C9485020C94C7000C94F5020C94CF021A
:100050000C94C7000C94C7000C94C7000C94C70004
:100060000C94C7000C94C700000000002400270077
:100070002A003D3D3D3D3D3D3D3D3D3D3D3D3D3D00
:100080003D3D3D3D3D3D3D3D3D3D3D3D3D3D3D3DA0
:100090003D3D0053595354454D20535441545553FD
:1000A0003A2052554E4E494E47003D3D3D3D3D3D67
:1000B0003D3D3D3D3D3D3D3D3D3D3D3D3D3D3D3D70
:1000C0003D3D3D3D3D3D3D3D3D3D000000000023AB
:1000D0000026002900207C204845415445523A2002
:1000E00000207C204C564C3A2000424154485F414D
:1000F00044433A200000000000250028002B0004A3
:1001000004040404040404020202020202030303BE
:1001100003030301020408102040800102040810B8
:100120002001020408102000000008000201000065
:10013000030407000000000000000000DB0411249D
:100140001FBECFEFD8E0DEBFCDBF11E0A0E0B1E031
:10015000E4E6FAE002C005900D92AC32B107D9F79F
:1001600021E0ACE2B1E001C01D92A33DB207E1F78E
:1001700010E0CFE9D0E004C02197FE010E942A05DB
:10018000CE39D107C9F70E9427030C9430050C948F
:100190000000833081F028F4813099F08230A9F09A
:1001A00008958730A9F08830C9F08430B1F4809187
:1001B00080008F7D03C0809180008F7780938000C6
:1001C000089584B58F7784BD089584B58F7DFBCF66
:1001D0008091B0008F778093B00008958091B00037
:1001E0008F7DF9CF1F93CF93DF93E2E3F1E09491FA
:1001F000EEE1F1E0D491EAE0F1E0C491CC23B9F072
:10020000182F992319F0892F0E94C900EC2FF0E0D4
:10021000EE0FFF1FEB50FF4FA591B4918FB7F894ED
:10022000EC91111108C0D095DE23DC938FBFDF91D4
:10023000CF911F910895DE2BF8CF3FB7F8948091AE
:10024000320190913301A0913401B091350126B56E
:10025000A89B05C02F3F19F00196A11DB11D3FBFFE
:10026000BA2FA92F982F8827BC01CD01620F711DCD
:10027000811D911D43E0660F771F881F991F4A95C6
:10028000D1F70895AF92BF92CF92DF92EF92FF9293
:100290000F931F93CF93DF936C017B018B01040FAE
:1002A000151FEB015E01AE18BF08C017D10759F04A
:1002B0006991D601ED91FC910190F081E02DC6018C
:1002C0000995892B79F7C501DF91CF911F910F9186
:1002D000FF90EF90DF90CF90BF90AF900895FC011A
:1002E000538D448D252F30E0842F90E0821B930B9B
:1002F000541710F0CF96089501970895FC01918D41
:10030000828D981761F0A28DAE0FBF2FB11D5D9643
:100310008C91928D9F5F9F73928F90E008958FEFE5
:100320009FEF0895FC01918D828D981731F0828D99
:10033000E80FF11D858D90E008958FEF9FEF0895F0
:10034000FC01918D228D892F90E0805C9F4F821B54
:1003500091098F739927089586E391E00E94A00187
:1003600021E0892B09F420E0822F089580E090E0BD
:10037000892B29F00E94AC0181110C940000089592
:10038000FC01A48DA80FB92FB11DA35ABF4F2C910A
:10039000848D90E001968F739927848FA689B78901
:1003A0002C93A089B1898C91837080648C93938DF8
:1003B000848D981306C00288F389E02D80818F7D9B
:1003C00080830895EF92FF920F931F93CF93DF9353
:1003D000EC0181E0888F9B8D8C8D98131AC0E88981
:1003E000F989808185FF15C09FB7F894EE89FF8950
:1003F0006083E889F98980818370806480839FBFEE
:1004000081E090E0DF91CF911F910F91FF90EF90ED
:100410000895F62E0B8D10E00F5F1F4F0F731127FD
:10042000E02E8C8D8E110CC00FB607FCFACFE88938
:10043000F989808185FFF5CFCE010E94C001F1CFFF
:10044000EB8DEC0FFD2FF11DE35AFF4FF0829FB7AC
:10045000F8940B8FEA89FB8980818062CFCF0F935C
:100460001F93CF93DF938C01D0E0C0E0F801EC0F35
:10047000FD1F6491662341F086E391E00E94E20152
:10048000892B11F02196F2CFCE01DF91CF911F91F0
:100490000F910895CF93DF93EC01888D8823B9F0F5
:1004A000AA89BB89E889F9898C9185FD03C080817F
:1004B00086FD0DC00FB607FCF7CF8C9185FFF2CFFC
:1004C000808185FFEDCFCE010E94C001E9CFDF9191
:1004D000CF910895FC0101900020E9F73197AF0119
:1004E000481B590BBC0186E391E00C944201CF9369
:1004F000DF930E942F02EC0182E191E00E946A02E8
:100500008C0F9D1FDF91CF9108951F920F920FB610
:100510000F9211242F933F938F939F93AF93BF9389
:1005200080912E0190912F01A0913001B091310165
:1005300030912D0126E0230F2D3758F50296A11D8D
:10054000B11D20932D0180932E0190932F01A09334
:100550003001B09331018091320190913301A0912B
:100560003401B09135010196A11DB11D8093320176
:1005700090933301A0933401B0933501BF91AF91B3
:100580009F918F913F912F910F900FBE0F901F90D1
:10059000189529E8230F0396A11DB11DD2CF1F92F4
:1005A0000F920FB60F9211242F933F934F935F93A7
:1005B0006F937F938F939F93AF93BF93EF93FF932B
:1005C00086E391E00E94C001FF91EF91BF91AF914E
:1005D0009F918F917F916F915F914F913F912F915B
:1005E0000F900FBE0F901F9018951F920F920FB68D
:1005F0000F9211242F938F939F93EF93FF93E0918A
:100600004601F09147018081E0914C01F0914D014C
:1006100082FD1BC0908180914F018F5F8F7320916D
:100620005001821741F0E0914F01F0E0EA5CFE4F8B
:10063000958F80934F01FF91EF919F918F912F9113
:100640000F900FBE0F901F9018958081F4CFCF931D
:10065000DF93CDB7DEB7A1970FB6F894DEBF0FBE1C
:10066000CDBF789484B5826084BD84B5816084BD3B
:1006700085B5826085BD85B5816085BD80916E0040
:10068000816080936E001092810080918100826071
:1006900080938100809181008160809381008091AE
:1006A00080008160809380008091B100846080939D
:1006B000B1008091B00081608093B00080917A0099
:1006C000846080937A0080917A00826080937A00BF
:1006D00080917A008E7F80937A0080917A00806882
:1006E00080937A001092C100E0914601F091470199
:1006F00082E08083E0914201F09143011082E09119
:100700004401F09145018FEC808310924E01E091FD
:100710004A01F0914B0186E08083E0914801F0911D
:100720004901808180618083E0914801F091490115
:10073000808188608083E0914801F0914901808147
:1007400080688083E0914801F091490180818F7D2C
:10075000808365E1262E61E0362EF101249101E0CF
:1007600011E0F80184918823C9F090E0880F991F67
:10077000FC01E859FF4FA591B491FC01EB50FF4FEC
:10078000459154913FB7F8949C91822F809598237E
:100790009C93FA019081892380833FBFEEE1F1E0D1
:1007A0002491EAE0F1E08491882399F090E0880FA9
:1007B000991FFC01E859FF4FA591B491FC01EB5042
:1007C000FF4F859194918FB7F894EC91E22BEC93C5
:1007D0008FBF80E00E94F2008AEA90E00E947702D8
:1007E00083E990E00E94770282E790E00E9477021E
:1007F0003AE0432E512C612C712CF0E4F0937C00F4
:1008000080917A00806480937A0080917A0086FDDE
:10081000FCCF8090780090907900E9E2F1E084913B
:10082000F101E490F801F490FF20E9F081110E94B9
:10083000C900EF2DF0E0EE0FFF1FE553FF4FA5912C
:10084000B4918C91E82279F0F7ED8F16F1E09F06D4
:100850000CF068C08DEB881681E098060CF065C03E
:1008600010922C0162C010922C01F12CE12C80918D
:100870002C010E94F2008AEE90E00E942F02092CC7
:10088000000CAA08BB08B7FE54C06DE286E391E0F5
:100890000E94E20122273327A901281939094A09B0
:1008A0005B0919A2FE01B1966F01CA01B901A3014A
:1008B00092010E940805605DF60162936F012115A7
:1008C00031054105510589F7C114D10419F0C6015C
:1008D0000E946A0281EE90E00E942F0285E191E081
:1008E000EA94EF2811F48AE191E00E946A0285ED12
:1008F00090E00E942F0280912C01811159C08FE15C
:1009000091E00E946A0282E191E00E946A020E94E4
:100910001D014B015C0180E9C82EDD24D394E12C3C
:10092000F12C2DC021E020932C01EE24E394F12C36
:100930009ECFA501940119A2CE0181966C01CA0136
:10094000B901A30192010E940805605DF60162935E
:100950006F01211531054105510589F7B5CF21E01A
:10096000C21AD108E108F10888EE880E83E0981ECB
:10097000A11CB11CC114D104E104F10461F00E9476
:100980001D01681979098A099B09683E7340810530
:10099000910528F7F4CF80E090E0892B09F42DCF62
:1009A0000E94AC01882309F428CF0E94000025CFC3
:1009B00084E291E0A6CFE6E3F1E01382128288EEB2
:1009C00093E0A0E0B0E084839583A683B78384E0BE
:1009D00091E09183808385EC90E09587848784EC17
:1009E00090E09787868780EC90E0918B808B81ECFC
:1009F00090E0938B828B82EC90E0958B848B86ECDD
:100A000090E0978B868B118E128E138E148E089524
:100A1000A1E21A2EAA1BBB1BFD010DC0AA1FBB1F02
:100A2000EE1FFF1FA217B307E407F50720F0A21B74
:100A3000B30BE40BF50B661F771F881F991F1A94E1
:100A400069F760957095809590959B01AC01BD010B
:100A5000CF010895EE0FFF1F0590F491E02D09944A
:100A6000F894FFCF00000000E20142016F014A024A
:100A7000A0017E0192010D0A004C4F572000534106
:100A800046450049444C4500414354495645000001
:107800000C94343C0C94513C0C94513C0C94513CE1
:107810000C94513C0C94513C0C94513C0C94513CB4
:107820000C94513C0C94513C0C94513C0C94513CA4
:107830000C94513C0C94513C0C94513C0C94513C94
:107840000C94513C0C94513C0C94513C0C94513C84
:107850000C94513C0C94513C0C94513C0C94513C74
:107860000C94513C0C94513C11241FBECFEFD8E036
:10787000DEBFCDBF11E0A0E0B1E0EAE8FFE702C063
:1078800005900D92A230B107D9F712E0A2E0B1E065
:1078900001C01D92AD30B107E1F70E942D3D0C945F
:1078A000C33F0C94003C982F95959595959595958B
:1078B000905D8F708A307CF0282F295A8091C0000B
:1078C00085FFFCCF9093C6008091C00085FFFCCF60
:1078D0002093C6000895282F205DF0CF982F809127
:1078E000C00085FFFCCF9093C6000895EF92FF92F1
:1078F0000F931F93EE24FF2487018091C00087FD22
:1079000017C00894E11CF11C011D111D81E2E8164D
:1079100081EAF80687E0080780E0180770F3E09135
:107920000401F091050109958091C00087FFE9CF1E
:107930008091C6001F910F91FF90EF9008950E94D3
:10794000763C982F8091C00085FFFCCF9093C600B5
:1079500091362CF490330CF09053892F089597555D
:10796000892F08951F930E949F3C182F0E949F3CCF
:107970001295107F810F1F9108951F93182F882350
:1079800021F00E94763C1150E1F71F9108951F935A
:10799000182F0E94763C803249F0809103018F5F5E
:1079A000809303018530C1F01F9108958091C0003C
:1079B00085FFFCCF84E18093C6008091C00085FFE5
:1079C000FCCF1093C6008091C00085FFFCCF80E102
:1079D0008093C6001F910895E0910401F091050184
:1079E00009951F9108950E94763C803241F0809164
:1079F00003018F5F80930301853081F008958091AA
:107A0000C00085FFFCCF84E18093C6008091C00058
:107A100085FFFCCF80E18093C6000895E0910401CA
:107A2000F09105010995089548EC50E08823A1F0F4
:107A30002D9A28EE33E0FA013197F1F721503040CA
:107A4000D1F72D9828EE33E0FA013197F1F7215064
:107A50003040D1F7815061F708953F924F925F9285
:107A60006F927F928F929F92AF92BF92CF92DF924E
:107A7000EF92FF920F931F93CF93DF93000082E06A
:107A80008093C00080E18093C4001092C50088E11B
:107A90008093C10086E08093C2005098589A259A3E
:107AA00081E00E94143D24E1F22E9EE1E92E85E959
:107AB000D82E0FE0C02E10E1B12EAA24A394B1E479
:107AC0009B2EA6E58A2EF2E57F2EE0E26E2E79E46B
:107AD000572E63E5462E50E5352E0E94763C8033C6
:107AE000B1F18133B9F1803409F46FC0813409F404
:107AF00076C0823409F485C0853409F488C08035A5
:107B000031F1823521F1813511F1853509F485C0D6
:107B1000863509F48DC0843609F496C0843709F49B
:107B200003C1853709F472C1863709F466C08091B4
:107B300003018F5F80930301853079F6E0910401A2
:107B4000F091050109950E94763C803351F60E9420
:107B5000F33CC3CF0E94763C803249F78091C0004D
:107B600085FFFCCFF092C6008091C00085FFFCCF5E
:107B70009092C6008091C00085FFFCCF8092C60025
:107B80008091C00085FFFCCF7092C6008091C0003C
:107B900085FFFCCF6092C6008091C00085FFFCCFBE
:107BA0005092C6008091C00085FFFCCF4092C60075
:107BB0008091C00085FFFCCF3092C6008091C0004C
:107BC00085FFFCCFB092C60088CF0E94763C8638F5
:107BD00008F4BDCF0E94763C0E94F33C7ECF0E9409
:107BE000763C803809F49CC0813809F40BC1823896
:107BF00009F430C1883909F48FC080E00E94C73C85
:107C00006CCF84E10E94BD3C0E94F33C66CF85E0CE
:107C10000E94BD3C0E94F33C60CF0E94763C809362
:107C200006010E94763C809307010E94F33C55CFE9
:107C30000E94763C803309F411C183E00E94BD3C70
:107C400080E00E94C73C49CF0E94763C80930902A5
:107C50000E94763C8093080280910C028E7F809374
:107C60000C020E94763C853409F409C18091080217
:107C700090910902892B89F000E010E00E94763C87
:107C8000F801E85FFE4F80830F5F1F4F809108026D
:107C9000909109020817190788F30E94763C8032F8
:107CA00009F045CF80910C0280FFF5C0609106017C
:107CB00070910701660F771F7093070160930601AB
:107CC000A0910802B09109021097C9F0E8E0F1E034
:107CD0009B01AD014E0F5F1FF999FECF32BD21BD53
:107CE000819180BDFA9AF99A2F5F3F4FE417F5070B
:107CF00099F76A0F7B1F70930701609306018091CB
:107D0000C00085FFFCCFF092C6008091C00085FFC7
:107D1000FCCFB092C600E1CE83E00E94C73CDDCE2E
:107D200082E00E94C73CD9CE0E94763C8093090233
:107D30000E94763C80930802809106019091070191
:107D4000880F991F90930701809306010E94763C4B
:107D5000853409F49AC080910C028E7F80930C02C6
:107D60000E94763C803209F0B8CE8091C00085FF39
:107D7000FCCFF092C600A0910802B09109021097C2
:107D8000C1F180910C02082F0170182F1695117007
:107D9000E0910601F0910701AF014F5F5F4FBA011B
:107DA00020E030E00023B1F4112339F49491809164
:107DB000C00085FFFCCF9093C6002F5F3F4FCB01E3
:107DC0000196FA012A173B0780F4BC014F5F5F4F11
:107DD000002351F3F999FECFF2BDE1BDF89A90B5B9
:107DE0008091C00085FFFCCFE6CF709307016093C0
:107DF00006018091C00085FDE5CE8091C00085FF21
:107E0000F8CFE0CE81E00E94C73C67CE0E94763C6E
:107E1000803209F08CCE8091C00085FFFCCFF092BB
:107E2000C6008091C00085FFFCCFE092C600809123
:107E3000C00085FFFCCFD092C6008091C00085FFB6
:107E4000FCCFC092C6008091C00085FFFCCFB092ED
:107E5000C60043CE80E10E94C73C3FCE0E94763CE4
:107E60000E94763C182F0E94763C112309F483C0AF
:107E7000113009F484C08FE00E94C73C2ECE80915F
:107E80000C02816080930C02F1CE80910C02816023
:107E900080930C0265CF809107018823880F880B9F
:107EA0008A2180930B028091060190910701880F2F
:107EB000991F90930701809306018091080280FF2B
:107EC00009C08091080290910902019690930902DD
:107ED00080930802F894F999FECF1127E0910601EA
:107EE000F0910701C8E0D1E0809108029091090269
:107EF000103091F40091570001700130D9F303E084
:107F000000935700E8950091570001700130D9F3B4
:107F100001E100935700E8950990199000915700EE
:107F200001700130D9F301E000935700E8951395F3
:107F3000103498F011270091570001700130D9F3E7
:107F400005E000935700E89500915700017001305B
:107F5000D9F301E100935700E8953296029709F0B2
:107F6000C7CF103011F00296E5CF11248091C000E8
:107F700085FFC5CEC8CE8EE10E94C73CAECD85E957
:0C7F80000E94C73CAACDF894FFCF8000FF
:00000001FF
