:100000000C949F000C94C7000C94C7000C94C7007C
:100010000C94C7000C94C7000C94C7000C94C70044
:100020000C94C7000C94C7000C94C7000C94C70034
:100030000C94C7000C94C7000C94C7000C94C70024
:100040000C9485020C94C7000C94F5020C94CF021A
:100050000C94C7000C94C7000C94C7000C94C70004
:100060000C94C7000C94C700000000002400270077
:100070002A003D3D3D3D3D3D3D3D3D3D3D3D3D3D00
:100080003D3D3D3D3D3D3D3D3D3D3D3D3D3D3D3DA0
:100090003D3D0053595354454D20535441545553FD
:1000A0003A2052554E4E494E47003D3D3D3D3D3D67
:1000B0003D3D3D3D3D3D3D3D3D3D3D3D3D3D3D3D70
:1000C0003D3D3D3D3D3D3D3D3D3D000000000023AB
:1000D0000026002900207C204845415445523A2002
:1000E00000207C204C564C3A2000424154485F414D
:1000F00044433A200000000000250028002B0004A3
:1001000004040404040404020202020202030303BE
:1001100003030301020408102040800102040810B8
:100120002001020408102000000008000201000065
:10013000030407000000000000000000DB0411249D
:100140001FBECFEFD8E0DEBFCDBF11E0A0E0B1E031
:10015000E4E6FAE002C005900D92AC32B107D9F79F
:1001600021E0ACE2B1E001C01D92A33DB207E1F78E
:1001700010E0CFE9D0E004C02197FE010E942A05DB
:10018000CE39D107C9F70E9427030C9430050C948F
:100190000000833081F028F4813099F08230A9F09A
:1001A00008958730A9F08830C9F08430B1F4809187
:1001B00080008F7D03C0809180008F7780938000C6
:1001C000089584B58F7784BD089584B58F7DFBCF66
:1001D0008091B0008F778093B00008958091B00037
:1001E0008F7DF9CF1F93CF93DF93E2E3F1E09491FA
:1001F000EEE1F1E0D491EAE0F1E0C491CC23B9F072
:10020000182F992319F0892F0E94C900EC2FF0E0D4
:10021000EE0FFF1FEB50FF4FA591B4918FB7F894ED
:10022000EC91111108C0D095DE23DC938FBFDF91D4
:10023000CF911F910895DE2BF8CF3FB7F8948091AE
:10024000320190913301A0913401B091350126B56E
:10025000A89B05C02F3F19F00196A11DB11D3FBFFE
:10026000BA2FA92F982F8827BC01CD01620F711DCD
:10027000811D911D43E0660F771F881F991F4A95C6
:10028000D1F70895AF92BF92CF92DF92EF92FF9293
:100290000F931F93CF93DF936C017B018B01040FAE
:1002A000151FEB015E01AE18BF08C017D10759F04A
:1002B0006991D601ED91FC910190F081E02DC6018C
:1002C0000995892B79F7C501DF91CF911F910F9186
:1002D000FF90EF90DF90CF90BF90AF900895FC011A
:1002E000538D448D252F30E0842F90E0821B930B9B
:1002F000541710F0CF96089501970895FC01918D41
:10030000828D981761F0A28DAE0FBF2FB11D5D9643
:100310008C91928D9F5F9F73928F90E008958FEFE5
:100320009FEF0895FC01918D828D981731F0828D99
:10033000E80FF11D858D90E008958FEF9FEF0895F0
:10034000FC01918D228D892F90E0805C9F4F821B54
:1003500091098F739927089586E391E00E94A00187
:1003600021E0892B09F420E0822F089580E090E0BD
:10037000892B29F00E94AC0181110C940000089592
:10038000FC01A48DA80FB92FB11DA35ABF4F2C910A
:10039000848D90E001968F739927848FA689B78901
:1003A0002C93A089B1898C91837080648C93938DF8
:1003B000848D981306C00288F389E02D80818F7D9B
:1003C00080830895EF92FF920F931F93CF93DF9353
:1003D000EC0181E0888F9B8D8C8D98131AC0E88981
:1003E000F989808185FF15C09FB7F894EE89FF8950
:1003F0006083E889F98980818370806480839FBFEE
:1004000081E090E0DF91CF911F910F91FF90EF90ED
:100410000895F62E0B8D10E00F5F1F4F0F731127FD
:10042000E02E8C8D8E110CC00FB607FCFACFE88938
:10043000F989808185FFF5CFCE010E94C001F1CFFF
:10044000EB8DEC0FFD2FF11DE35AFF4FF0829FB7AC
:10045000F8940B8FEA89FB8980818062CFCF0F935C
:100460001F93CF93DF938C01D0E0C0E0F801EC0F35
:10047000FD1F6491662341F086E391E00E94E20152
:10048000892B11F02196F2CFCE01DF91CF911F91F0
:100490000F910895CF93DF93EC01888D8823B9F0F5
:1004A000AA89BB89E889F9898C9185FD03C080817F
:1004B00086FD0DC00FB607FCF7CF8C9185FFF2CFFC
:1004C000808185FFEDCFCE010E94C001E9CFDF9191
:1004D000CF910895FC0101900020E9F73197AF0119
:1004E000481B590BBC0186E391E00C944201CF9369
:1004F000DF930E942F02EC0182E191E00E946A02E8
:100500008C0F9D1FDF91CF9108951F920F920FB610
:100510000F9211242F933F938F939F93AF93BF9389
:1005200080912E0190912F01A0913001B091310165
:1005300030912D0126E0230F2D3758F50296A11D8D
:10054000B11D20932D0180932E0190932F01A09334
:100550003001B09331018091320190913301A0912B
:100560003401B09135010196A11DB11D8093320176
:1005700090933301A0933401B0933501BF91AF91B3
:100580009F918F913F912F910F900FBE0F901F90D1
:10059000189529E8230F0396A11DB11DD2CF1F92F4
:1005A0000F920FB60F9211242F933F934F935F93A7
:1005B0006F937F938F939F93AF93BF93EF93FF932B
:1005C00086E391E00E94C001FF91EF91BF91AF914E
:1005D0009F918F917F916F915F914F913F912F915B
:1005E0000F900FBE0F901F9018951F920F920FB68D
:1005F0000F9211242F938F939F93EF93FF93E0918A
:100600004601F09147018081E0914C01F0914D014C
:1006100082FD1BC0908180914F018F5F8F7320916D
:100620005001821741F0E0914F01F0E0EA5CFE4F8B
:10063000958F80934F01FF91EF919F918F912F9113
:100640000F900FBE0F901F9018958081F4CFCF931D
:10065000DF93CDB7DEB7A1970FB6F894DEBF0FBE1C
:10066000CDBF789484B5826084BD84B5816084BD3B
:1006700085B5826085BD85B5816085BD80916E0040
:10068000816080936E001092810080918100826071
:1006900080938100809181008160809381008091AE
:1006A00080008160809380008091B100846080939D
:1006B000B1008091B00081608093B00080917A0099
:1006C000846080937A0080917A00826080937A00BF
:1006D00080917A008E7F80937A0080917A00806882
:1006E00080937A001092C100E0914601F091470199
:1006F00082E08083E0914201F09143011082E09119
:100700004401F09145018FEC808310924E01E091FD
:100710004A01F0914B0186E08083E0914801F0911D
:100720004901808180618083E0914801F091490115
:10073000808188608083E0914801F0914901808147
:1007400080688083E0914801F091490180818F7D2C
:10075000808365E1262E61E0362EF101249101E0CF
:1007600011E0F80184918823C9F090E0880F991F67
:10077000FC01E859FF4FA591B491FC01EB50FF4FEC
:10078000459154913FB7F8949C91822F809598237E
:100790009C93FA019081892380833FBFEEE1F1E0D1
:1007A0002491EAE0F1E08491882399F090E0880FA9
:1007B000991FFC01E859FF4FA591B491FC01EB5042
:1007C000FF4F859194918FB7F894EC91E22BEC93C5
:1007D0008FBF80E00E94F2008AEA90E00E947702D8
:1007E00083E990E00E94770282E790E00E9477021E
:1007F0003AE0432E512C612C712CF0E4F0937C00F4
:1008000080917A00806480937A0080917A0086FDDE
:10081000FCCF8090780090907900E9E2F1E084913B
:10082000F101E490F801F490FF20E9F081110E94B9
:10083000C900EF2DF0E0EE0FFF1FE553FF4FA5912C
:10084000B4918C91E82279F0F7ED8F16F1E09F06D4
:100850000CF068C08DEB881681E098060CF065C03E
:1008600010922C0162C010922C01F12CE12C80918D
:100870002C010E94F2008AEE90E00E942F02092CC7
:10088000000CAA08BB08B7FE54C06DE286E391E0F5
:100890000E94E20122273327A901281939094A09B0
:1008A0005B0919A2FE01B1966F01CA01B901A3014A
:1008B00092010E940805605DF60162936F012115A7
:1008C00031054105510589F7C114D10419F0C6015C
:1008D0000E946A0281EE90E00E942F0285E191E081
:1008E000EA94EF2811F48AE191E00E946A0285ED12
:1008F00090E00E942F0280912C01811159C08FE15C
:1009000091E00E946A0282E191E00E946A020E94E4
:100910001D014B015C0180E9C82EDD24D394E12C3C
:10092000F12C2DC021E020932C01EE24E394F12C36
:100930009ECFA501940119A2CE0181966C01CA0136
:10094000B901A30192010E940805605DF60162935E
:100950006F01211531054105510589F7B5CF21E01A
:10096000C21AD108E108F10888EE880E83E0981ECB
:10097000A11CB11CC114D104E104F10461F00E9476
:100980001D01681979098A099B09683E7340810530
:10099000910528F7F4CF80E090E0892B09F42DCF62
:1009A0000E94AC01882309F428CF0E94000025CFC3
:1009B00084E291E0A6CFE6E3F1E01382128288EEB2
:1009C00093E0A0E0B0E084839583A683B78384E0BE
:1009D00091E09183808385EC90E09587848784EC17
:1009E00090E09787868780EC90E0918B808B81ECFC
:1009F00090E0938B828B82EC90E0958B848B86ECDD
:100A000090E0978B868B118E128E138E148E089524
:100A1000A1E21A2EAA1BBB1BFD010DC0AA1FBB1F02
:100A2000EE1FFF1FA217B307E407F50720F0A21B74
:100A3000B30BE40BF50B661F771F881F991F1A94E1
:100A400069F760957095809590959B01AC01BD010B
:100A5000CF010895EE0FFF1F0590F491E02D09944A
:040A6000F894FFCF38
:100A640000000000E20142016F014A02A0017E0180
:100A740092010D0A004C4F5720005341464500494E
:0C0A8400444C45004143544956450000D5
:00000001FF
