:100000000C9463000C948B000C948B000C948B006C
:100010000C948B000C948B000C948B000C948B0034
:100020000C948B000C948B000C948B000C94640447
:100030000C948B000C948B000C948B000C948B0014
:100040000C941A040C948B000C948B000C948B0071
:100050000C948B000C948B000C948B000C948B00F4
:100060000C948B000C948B000000000024002700EF
:100070002A0000000000250028002B0000000000DE
:1000800023002600290004040404040404040202DA
:100090000202020203030303030301020408102007
:1000A0004080010204081020010204081020000012
:1000B0000008000201000003040700000000000027
:1000C00000000708830811241FBECFEFD8E0DEBF71
:1000D000CDBF11E0A0E0B1E0E4E7F4E102C005909B
:1000E0000D92AE3AB107D9F723E0AEEAB1E001C014
:1000F0001D92A031B207E1F710E0C2E6D0E004C0E3
:100100002197FE010E94FB08C136D107C9F70E9462
:1001100020050C942D0A0C940000CF92DF92EF92F0
:10012000FF92DC01A03282E0B807D4F5A53BB1050F
:1001300014F0A4EBB0E04091F20228E830E0241B78
:10014000310947FD3395220F331F220F331F6901F9
:10015000330FEE08FF084091F30228E532E0241B3C
:10016000310947FD3395220F331F220F331F032E12
:10017000000C440B550B2C193D094E095F09B7FFC4
:1001800002C0B0E0A0E00E94B60824EB30E040E0FE
:1001900050E00E948C08C20ED31EE41EF51ED6014C
:1001A000E091F102EC3080F52091F20288E890E0D5
:1001B000821B910927FD9395880F991F880F991F1E
:1001C000A817B90784F02091F30288E592E0821B1A
:1001D000910927FD9395880F991F880F991FA817DC
:1001E000B9070CF4CD010297880F991F4FB7F89407
:1001F0002E2F30E0F901EE0FFF1FE20FF31FE35344
:10020000FD4F928381834FBFFF90EF90DF90CF909F
:1002100008952091C7023091C8028091C502909143
:10022000C60228173907A1F0E091C702F091C80271
:10023000E354FE4F80852091C7023091C8022F5FA2
:100240003F4F33273093C8022093C70290E00895B0
:100250008FEF9FEF08952091C5023091C6022F5F66
:100260003F4F33274091C7025091C80224173507EA
:1002700059F0E091C502F091C602E354FE4F808729
:100280003093C6022093C5020895AF92BF92CF92D9
:10029000DF92EF92FF920F931F93CF93DF936C0146
:1002A0007B018B01040F151FEB015E01AE18BF0827
:1002B000C017D10759F06991D601ED91FC910190D9
:1002C000F081E02DC6010995892B79F7C501DF91F1
:1002D000CF911F910F91FF90EF90DF90CF90BF9043
:1002E000AF900895833081F028F4813099F0823006
:1002F000A9F008958730A9F08830C9F08430B1F4AE
:10030000809180008F7D03C0809180008F778093E3
:100310008000089584B58F7784BD089584B58F7D5E
:10032000FBCF8091B0008F778093B00008958091CB
:10033000B0008F7DF9CF1F93CF93DF93282F30E04C
:10034000F901E255FF4F8491F901E656FF4FD49130
:10035000F901EA57FF4FC491CC23A9F0162F811160
:100360000E947201EC2FF0E0EE0FFF1FEE58FF4FDE
:10037000A591B4918FB7F894EC91111108C0D09564
:10038000DE23DC938FBFDF91CF911F910895DE2B89
:10039000F8CFCF93DF9390E0FC01E656FF4F249116
:1003A0008A579F4FFC0184918823D1F090E0880FF9
:1003B000991FFC01E859FF4FA591B491FC01EE583B
:1003C000FF4FC591D491623071F49FB7F8943C917E
:1003D000822F809583238C93E8812E2B28839FBFC7
:1003E000DF91CF9108958FB7F894EC912E2B2C9339
:1003F0008FBFF6CF3FB7F8948091B5019091B601C9
:10040000A091B701B091B80126B5A89B05C02F3FB8
:1004100019F00196A11DB11D3FBFBA2FA92F982F2A
:100420008827BC01CD01620F711D811D911D42E025
:10043000660F771F881F991F4A95D1F708958F92ED
:100440009F92AF92BF92CF92DF92EF92FF924B01B9
:100450005C010E94FA016B017C010E94FA016C1997
:100460007D098E099F09683E734081059105A8F3B7
:1004700021E0821A9108A108B10888EEC80E83E035
:10048000D81EE11CF11C81149104A104B10429F7C8
:10049000FF90EF90DF90CF90BF90AF909F908F90A4
:1004A0000895089590E080E008958F929F92AF9212
:1004B000BF920F931F93CF93DF93CDB7DEB7A19772
:1004C0000FB6F894DEBF0FBECDBF19A2423008F4BC
:1004D0004AE08E010F5D1F4F842E912CB12CA12C70
:1004E000A50194010E94BE08E62FB901CA01EA30B5
:1004F00044F5E05DD801EE938D01232B242B252BB1
:1005000079F790E080E0109769F0FD0101900020FC
:10051000E9F73197AF014A1B5B0BBD0184EF92E015
:100520000E944501A1960FB6F894DEBF0FBECDBF65
:10053000DF91CF911F910F91BF90AF909F908F90BF
:100540000895E95CD7CFFC0101900020E9F73197CD
:10055000AF01481B590BBC0184EF92E00C9445019C
:10056000CF93DF93EC0160E08E810E949B0161E0FC
:100570008E810E949B0160E08E810E949B018BE82E
:1005800091E00197F1F7DF91CF910895CF92DF923B
:10059000EF92FF920F931F93CF93DF936C017C0137
:1005A00087E0E80EF11CD0E0C0E0062F10E0B801B3
:1005B0000C2E02C0759567950A94E2F76170F701F9
:1005C00081917F010E949B012196C430D10579F76A
:1005D000C601DF91CF911F910F91FF90EF90DF90B7
:1005E000CF900C94B002CF92DF92EF92FF920F93D4
:1005F0001F93CF93DF93EC01F62E642F8C810E9422
:100600009B018D818F3F19F060E00E949B010F2DAF
:1006100010E08F8584FF25C06E0187E0C80ED11CD5
:10062000F12CE12CB8010E2C02C0759567950A9447
:10063000E2F76170F60181916F010E949B01FFEF6B
:10064000EF1AFF0A88E0E816F10461F7CE01DF91A6
:10065000CF911F910F91FF90EF90DF90CF900C946E
:10066000B002B80184E0759567958A95E1F7CE01EF
:100670000E94C6026F2DCE01DF91CF911F910F9185
:10068000FF90EF90DF90CF900C94C60240E0682F6F
:1006900084EF92E00C94F30281E00E9446038BE326
:1006A0009FE10197F1F70895CF93DF93823029F40A
:1006B0009091030398609093030380930703109233
:1006C000080380E48093090380E180930A0380E5B6
:1006D00080930B0361E08091F8020E94C901809130
:1006E000F9028F3F19F061E00E94C90161E0809139
:1006F000FA020E94C901C4EFD2E09E01245F324099
:100700008091030384FD0BC084E090E021962817BC
:10071000390744F461E08E810E94C901EECF88E080
:1007200090E0F4CF8BE39DE00197F1F760E08091DA
:10073000F8020E949B0160E08091FA020E949B01F6
:100740008091F9028F3F19F060E00E949B01809137
:10075000030384FD34C063E084EF92E00E94C6028C
:10076000CBE4D6E4CE010197F1F763E084EF92E0A9
:100770000E94C6022197F1F763E084EF92E00E94A5
:10078000C60283E592E00197F1F762E084EF92E020
:100790000E94C6028091030380620E94460384E0A7
:1007A000809304038CE00E9446030E944C0382E085
:1007B0008093050386E0DF91CF910C94460380621D
:1007C0000E9446038BE496E40197F1F780910303BE
:1007D00080620E94460383E592E00197F1F78091E1
:1007E000030380620E944603D5CF909107036917E7
:1007F00010F06FEF690FE62FF0E0EC50FD4F948999
:10080000890F80680C94460360E080E00E94F50345
:1008100085E291E00E94A30261E081E00E94F5037D
:1008200086E391E00C94A30241E00E94F30281E090
:1008300090E008951F920F920FB60F9211242F93FC
:100840003F938F939F93AF93BF938091B10190910A
:10085000B201A091B301B091B4013091B00123E095
:10086000230F2D3758F50196A11DB11D2093B0011E
:100870008093B1019093B201A093B301B093B401FE
:100880008091B5019091B601A091B701B091B801E6
:100890000196A11DB11D8093B5019093B601A0935F
:1008A000B701B093B801BF91AF919F918F913F91E4
:1008B0002F910F900FBE0F901F90189526E8230FD1
:1008C0000296A11DB11DD2CF1F920F920FB60F92AB
:1008D00011242F933F934F935F936F937F938F9345
:1008E0009F93AF93BF93CF93DF93EF93FF93809149
:1008F000AF01C091AE01D0E087FF24C01092850007
:10090000109284008091AF018F5F8093AF0180913E
:10091000AF01082E000C990B8C179D0724F48091D1
:10092000AF018C30C4F180918400909185000496D1
:1009300080349C4908F47AC08091840090918500AD
:10094000049676C08091AF01082E000C990B8C178D
:100950009D07C4F6E091AF018E2FEE0F990BFC01BD
:10096000EE0FFF1FE80FF91FE353FD4F808186FF55
:10097000C9CFE091AF018E2FEE0F990BFC01EE0F66
:10098000FF1FE80FF91FE353FD4F808160E08F7375
:100990000E949B01B7CF2091840030918500E091A7
:1009A000AF018E2FEE0F990BFC01EE0FFF1FE80F2A
:1009B000F91FE353FD4F81819281820F931F909322
:1009C000890080938800E091AF018E2FEE0F990B84
:1009D000FC01EE0FFF1FE80FF91FE353FD4F80816D
:1009E00086FF11C0E091AF018E2FEE0F990BFC0135
:1009F000EE0FFF1FE80FF91FE353FD4F808161E009
:100A00008F730E949B01FF91EF91DF91CF91BF9176
:100A1000AF919F918F917F916F915F914F913F9196
:100A20002F910F900FBE0F901F90189580E49CE9B6
:100A300090938900809388008FEF8093AF01E3CF7C
:100A4000789484B5826084BD84B5816084BD85B5A9
:100A5000826085BD85B5816085BD80916E008160B5
:100A600080936E001092810080918100826080935B
:100A7000810080918100816080938100809180005D
:100A80008160809380008091B10084608093B10088
:100A90008091B00081608093B00080917A00846082
:100AA00080937A0080917A00826080937A008091AE
:100AB0007A00816080937A0080917A0080688093C8
:100AC0007A001092C1000E9404048091F1028C30DF
:100AD00008F051C061E089E00E94C9018091F102F3
:100AE000282F30E0F901EE0FFF1FE20FF31FE35351
:100AF000FD4F9081907C996090831092F202109249
:100B0000F3022CE0622F0E94EF08829FB0011124B3
:100B100030E020E0AB01420F531FFA01EE0FFF1F40
:100B2000E40FF51FE353FD4F908196FD16C02F5F34
:100B30003F4F2C30310571F781110FC010928000AA
:100B400082E0809381001092850010928400B19A17
:100B500080916F00826080936F00E091F1028E2F90
:100B600090E0FC01EE0FFF1FE80FF91FE353FD4F6C
:100B700080818064808382E00E9454032091C902B6
:100B80003091CA028091CB029091CC02289FE00163
:100B9000299FD00D389FD00D1124CE010E9401094C
:100BA0009093C4018093C301AE0170E060E00E94A5
:100BB000260AD0E0C0E08091CB029091CC02C81709
:100BC000D907B4F4E091C101F091C201EC0FFD1F0F
:100BD00061E080810E94C901E091C101F091C201F0
:100BE000EC0FFD1F61E080810E949B012196E3CF05
:100BF000D0E0C0E08091C9029091CA02C817D9071D
:100C0000FCF04BE4642E712C50E0A52E50E0B52E84
:100C100064EB862E912CD0E0C0E08091CB029091C5
:100C2000CC02C817D907C4F4E091C101F091C20108
:100C3000EC0FFD1F61E080810E949B012196EDCFAA
:100C4000E091BF01F091C001EC0FFD1F62E08081D7
:100C50000E94C9012196CECFD0E0C0E08091CB02A6
:100C60009091CC02C817D9070CF056C1E091C10190
:100C7000F091C201EC0FFD1F60E080810E949B019A
:100C8000C3010197F1F710E000E08091C902909153
:100C9000CA02081719070CF06CC08091CB02909122
:100CA000CC02089F7001099FF00C189FF00C1124D2
:100CB000EC0EFD1EE091BF01F091C001E00FF11FAD
:100CC000208130E0F901E255FF4F8491F901E656A9
:100CD000FF4FD490F901EA57FF4FC490CC2009F49C
:100CE0003CC081110E947201EC2DF0E0EE0FFF1F5D
:100CF000E458FF4FA591B491EC91DE2231E020E061
:100D000009F430E0832F922FC090C301D090C4012A
:100D1000CE0CDF1CF6015080252D2270892B01F5A9
:100D2000211116C0F52DF6605F2E81E00E942B0187
:100D30008091BD019091BE01E80EF91EF7018081FE
:100D40000E942B01802F0E942B018C2F0E942B01CF
:100D5000F60150820F5F1F4F98CF90E080E0D4CF14
:100D60002223B1F3852D8D7F582E689453F880E0AF
:100D7000DDCFE091C101F091C201EC0FFD1F61E0F8
:100D800080810E949B01219669CFFC01EF5AFE4FA2
:100D90002081121306C101969093BC018093BB0180
:100DA000049709F0B9C064E873E080E090E00E9425
:100DB0001F020E944C0360E081E00E94F50386E57B
:100DC00091E00E94A30261E084E00E94F50385E6C1
:100DD00091E00E94A3029092BA018092B901C09161
:100DE000B901D091BA01D7FD0FC0CE010E948D008C
:100DF00065E070E080E090E00E941F022597D093AC
:100E0000BA01C093B901EBCF60ED77E080E090E0EC
:100E10000E941F020E944C0360E082E00E94F503E2
:100E20008FE691E00E94A30285E0C82ED12CE12C30
:100E3000F12C61E084E00E94F5034AE0C701B601AD
:100E40000E9455028FE491E00E94A30268EE73E0D5
:100E500080E090E00E941F02F1E0CF1AD108E10883
:100E6000F10839F70E944C0360E082E00E94F5032C
:100E70008EE791E00E94A302C3E0D0E089E891E010
:100E80000E94A30264EF71E080E090E00E941F02E4
:100E90002197A1F760E971E080E090E00E941F02D5
:100EA0000E944C0360E084E00E94F5038BE891E02F
:100EB0000E94A30268EB71E080E090E00E941F02B4
:100EC00068EE73E080E090E00E941F021092BA0189
:100ED0001092B901C091B901D091BA01C53BD105B9
:100EE0007CF4CE010E948D006FE070E080E090E025
:100EF0000E941F022596D093BA01C093B901EACF90
:100F00001092BC011092BB010E944C030E94040489
:100F10001092BC011092BB018091C5029091C60253
:100F20002091C7023091C802821B930B97FD9395C5
:100F30009695879596958795892B09F459C00E94B7
:100F40000901C82F0E940901182F0E9409010E945F
:100F50000901C13009F70E944C0360E080E00E9463
:100F6000F50385E491E00E94A30261E087E00E941E
:100F7000F5038FE491E00E94A30261E087E00E9404
:100F8000F503D0E0C0E08091BB019091BC018C17CB
:100F90009D070CF4FACE84E391E00E94A30221960F
:100FA000F2CF64EF71E080E090E00E941F020E94A7
:100FB0004C0360E081E00E94F50383E991E00E9428
:100FC000A30260E086E00E94F50388E991E00E94B8
:100FD000A30261E084E00E94F50382EA91E00E94AE
:100FE000A30268EB7BE080E090E00E941F028CCFC0
:100FF0008091BB019091BC01892B11F40E940404E3
:10100000A114B10409F407CE0E94000004CE80911F
:10101000AE018C3008F073C091E0980F9093AE0150
:101020008093F10290E0FC01EE0FFF1FE80FF91F23
:10103000E353FD4F88EB9BE0928381831092F7028C
:101040001092F6028DE191E09093F5028093F40204
:1010500082E18093F8028FEF8093F90283E180931D
:10106000FA0281E18093FB0280E18093FC028FE031
:101070008093FD028EE08093FE021092FF02109298
:10108000000310920103109202031092030381E007
:101090000E945403E5ECF1E080E091E0DF019C0167
:1010A0001D9221503040E1F71092C6021092C50205
:1010B0001092C8021092C70287E091E09093BE019F
:1010C0008093BD0183E091E09093C0018093BF01C4
:1010D00080E091E09093C2018093C10184E090E0B0
:1010E0009093CA028093C90283E090E09093CC026F
:1010F0008093CB021092C4011092C30108958FEF28
:101100008093F1029BCF8091C3019091C40100971D
:1011100011F00C949D090895052E97FB1EF4009480
:101120000E94A30857FD07D00E94BE0807FC03D009
:101130004EF40C94A30850954095309521953F4F5F
:101140004F4F5F4F089590958095709561957F4FB3
:101150008F4F9F4F08950E94E008A59F900DB49F68
:10116000900DA49F800D911D11240895B7FF0C943C
:10117000AB080E94AB08821B930B0895A1E21A2EC4
:10118000AA1BBB1BFD010DC0AA1FBB1FEE1FFF1F2B
:10119000A217B307E407F50720F0A21BB30BE40B7B
:1011A000F50B661F771F881F991F1A9469F76095C2
:1011B0007095809590959B01AC01BD01CF0108957C
:1011C000A29FB001B39FC001A39F700D811D112488
:1011D000911DB29F700D811D1124911D0895991BC1
:1011E00079E004C0991F961708F0961B881F7A951E
:1011F000C9F780950895EE0FFF1F0590F491E02D3B
:1012000009940F931F93CF93DF938230910510F4CD
:1012100082E090E0E0910E03F0910F0330E020E0D7
:10122000B0E0A0E0309799F42115310509F44AC0E7
:10123000281B390B24303105D8F58A819B81611533
:10124000710589F1FB0193838283FE0111C0408106
:1012500051810281138148175907E0F04817590757
:1012600099F4109761F012960C93129713961C93B1
:101270003296CF01DF91CF911F910F910895009386
:101280000E0310930F03F4CF2115310551F04217CF
:10129000530738F0A901DB019A01BD01DF01F80114
:1012A000C1CFEF01F9CF90930F0380930E03CDCF01
:1012B000FE01E20FF31F819391932250310939838C
:1012C0002883D7CF20910C0330910D03232B41F4B9
:1012D000209115013091160130930D0320930C03DA
:1012E00020911301309114012115310541F42DB7DE
:1012F0003EB74091170150911801241B350BE09126
:101300000C03F0910D03E217F307A0F42E1B3F0B23
:101310002817390778F0AC014E5F5F4F2417350767
:1013200048F04E0F5F1F50930D0340930C038193C1
:1013300091939FCFF0E0E0E09CCFCF93DF930097B5
:10134000E9F0FC01329713821282A0910E03B09152
:101350000F03ED0130E020E01097A1F420813181EE
:10136000820F931F20910C0330910D03281739072A
:1013700009F061C0F0930D03E0930C03DF91CF916E
:101380000895EA01CE17DF07E8F54A815B819E01E7
:1013900041155105B1F7E901FB83EA834991599160
:1013A000C40FD51FEC17FD0761F48081918102966F
:1013B000840F951FE90199838883828193819B83A0
:1013C0008A83F0E0E0E012968D919C91139700974C
:1013D000B9F52D913C911197CD010296820F931F83
:1013E00020910C0330910D032817390739F63097F7
:1013F00051F510920F0310920E03B0930D03A093BA
:101400000C03BCCFD383C28340815181840F951FCD
:10141000C817D90761F44E5F5F4F88819981480FE3
:10142000591F518340838A819B8193838283211535
:10143000310509F0B0CFF0930F03E0930E039ECF78
:10144000FD01DC01C0CF13821282D7CFDC0101C0C5
:101450006D9341505040E0F7089510E0C2E6D0E0AF
:1014600004C0FE010E94FB082196C336D107C9F7CC
:04147000F894FFCF1E
:101474000405060001020331323334353637383976
:101484002A302300001003800000000000140445EB
:1014940001520251022A454E5445522054484520D7
:1014A400434F44452A00544F204F50454E20444F4B
:1014B4004F5221210050415353574F52443A002078
:1014C40000303132330041636365737320477261C6
:1014D4006E7465640057454C434F4D4521210047C8
:1014E400455420494E2057495448494E3A005245E4
:1014F4002D4C4F434B494E47002E004C4F434B4518
:10150400442100434F444500494E434F5252454302
:0E1514005400474554204157415921212100E0
:00000001FF
